{
  "address": "0x16080c24F7372F5b88474bACBD326F8100036acf",
  "_format": "hh-sol-artifact-1",
  "contractName": "CryptoMomo",
  "sourceName": "contracts/CryptoMomo.sol",
  "abi": [
    {
      "inputs": [],
      "name": "TransferFailed",
      "type": "error"
    },
    {
      "inputs": [],
      "name": "WalletAlreadyCreated",
      "type": "error"
    },
    {
      "inputs": [],
      "name": "WalletDoesNotExists",
      "type": "error"
    },
    {
      "anonymous": false,
      "inputs": [
        {
          "indexed": false,
          "internalType": "uint8",
          "name": "version",
          "type": "uint8"
        }
      ],
      "name": "Initialized",
      "type": "event"
    },
    {
      "anonymous": false,
      "inputs": [
        {
          "indexed": true,
          "internalType": "address",
          "name": "previousOwner",
          "type": "address"
        },
        {
          "indexed": true,
          "internalType": "address",
          "name": "newOwner",
          "type": "address"
        }
      ],
      "name": "OwnershipTransferred",
      "type": "event"
    },
    {
      "anonymous": false,
      "inputs": [
        {
          "indexed": false,
          "internalType": "address",
          "name": "account",
          "type": "address"
        }
      ],
      "name": "Paused",
      "type": "event"
    },
    {
      "anonymous": false,
      "inputs": [
        {
          "indexed": false,
          "internalType": "address",
          "name": "account",
          "type": "address"
        }
      ],
      "name": "Unpaused",
      "type": "event"
    },
    {
      "inputs": [
        {
          "internalType": "string",
          "name": "phonenumberOrUUID",
          "type": "string"
        }
      ],
      "name": "addressOfPhonenumber",
      "outputs": [
        {
          "internalType": "address",
          "name": "",
          "type": "address"
        }
      ],
      "stateMutability": "view",
      "type": "function"
    },
    {
      "inputs": [
        {
          "internalType": "string",
          "name": "phonenumberOrUUID",
          "type": "string"
        },
        {
          "internalType": "address",
          "name": "recipient",
          "type": "address"
        },
        {
          "internalType": "address",
          "name": "token",
          "type": "address"
        },
        {
          "internalType": "uint256",
          "name": "amount",
          "type": "uint256"
        }
      ],
      "name": "approveAddress",
      "outputs": [
        {
          "internalType": "bool",
          "name": "",
          "type": "bool"
        }
      ],
      "stateMutability": "nonpayable",
      "type": "function"
    },
    {
      "inputs": [
        {
          "internalType": "string",
          "name": "phonenumberOrUUID",
          "type": "string"
        },
        {
          "internalType": "string",
          "name": "recipientPhonenumberOrUUID",
          "type": "string"
        },
        {
          "internalType": "address",
          "name": "token",
          "type": "address"
        },
        {
          "internalType": "uint256",
          "name": "amount",
          "type": "uint256"
        }
      ],
      "name": "approvePhonenumber",
      "outputs": [
        {
          "internalType": "bool",
          "name": "",
          "type": "bool"
        }
      ],
      "stateMutability": "nonpayable",
      "type": "function"
    },
    {
      "inputs": [
        {
          "internalType": "string",
          "name": "phonenumberOrUUID",
          "type": "string"
        },
        {
          "internalType": "address",
          "name": "token",
          "type": "address"
        }
      ],
      "name": "balanceOf",
      "outputs": [
        {
          "internalType": "uint256",
          "name": "",
          "type": "uint256"
        }
      ],
      "stateMutability": "view",
      "type": "function"
    },
    {
      "inputs": [
        {
          "internalType": "string",
          "name": "phonenumberOrUUID",
          "type": "string"
        }
      ],
      "name": "createOrClaimWallet",
      "outputs": [
        {
          "internalType": "address",
          "name": "wallet",
          "type": "address"
        }
      ],
      "stateMutability": "nonpayable",
      "type": "function"
    },
    {
      "inputs": [
        {
          "components": [
            {
              "internalType": "address",
              "name": "from",
              "type": "address"
            },
            {
              "internalType": "address",
              "name": "to",
              "type": "address"
            },
            {
              "internalType": "uint256",
              "name": "value",
              "type": "uint256"
            },
            {
              "internalType": "uint256",
              "name": "gas",
              "type": "uint256"
            },
            {
              "internalType": "uint256",
              "name": "nonce",
              "type": "uint256"
            },
            {
              "internalType": "bytes",
              "name": "data",
              "type": "bytes"
            }
          ],
          "internalType": "struct CryptoMomo.ForwardRequest",
          "name": "_req",
          "type": "tuple"
        },
        {
          "internalType": "bytes",
          "name": "_signature",
          "type": "bytes"
        }
      ],
      "name": "execute",
      "outputs": [
        {
          "internalType": "bool",
          "name": "",
          "type": "bool"
        },
        {
          "internalType": "bytes",
          "name": "",
          "type": "bytes"
        }
      ],
      "stateMutability": "payable",
      "type": "function"
    },
    {
      "inputs": [
        {
          "internalType": "address",
          "name": "from",
          "type": "address"
        }
      ],
      "name": "getNonce",
      "outputs": [
        {
          "internalType": "uint256",
          "name": "",
          "type": "uint256"
        }
      ],
      "stateMutability": "view",
      "type": "function"
    },
    {
      "inputs": [
        {
          "internalType": "address",
          "name": "_factoryAddress",
          "type": "address"
        }
      ],
      "name": "initialize",
      "outputs": [],
      "stateMutability": "nonpayable",
      "type": "function"
    },
    {
      "inputs": [],
      "name": "owner",
      "outputs": [
        {
          "internalType": "address",
          "name": "",
          "type": "address"
        }
      ],
      "stateMutability": "view",
      "type": "function"
    },
    {
      "inputs": [],
      "name": "paused",
      "outputs": [
        {
          "internalType": "bool",
          "name": "",
          "type": "bool"
        }
      ],
      "stateMutability": "view",
      "type": "function"
    },
    {
      "inputs": [],
      "name": "renounceOwnership",
      "outputs": [],
      "stateMutability": "nonpayable",
      "type": "function"
    },
    {
      "inputs": [
        {
          "internalType": "string",
          "name": "fromPhonenumberOrUUID",
          "type": "string"
        },
        {
          "internalType": "string",
          "name": "toPhonenumberOrUUID",
          "type": "string"
        },
        {
          "internalType": "address",
          "name": "token",
          "type": "address"
        },
        {
          "internalType": "uint256",
          "name": "amount",
          "type": "uint256"
        }
      ],
      "name": "safeTransferToAccount",
      "outputs": [
        {
          "internalType": "bool",
          "name": "",
          "type": "bool"
        }
      ],
      "stateMutability": "nonpayable",
      "type": "function"
    },
    {
      "inputs": [
        {
          "internalType": "address",
          "name": "newOwner",
          "type": "address"
        }
      ],
      "name": "transferOwnership",
      "outputs": [],
      "stateMutability": "nonpayable",
      "type": "function"
    },
    {
      "inputs": [
        {
          "internalType": "string",
          "name": "fromPhonenumberOrUUID",
          "type": "string"
        },
        {
          "internalType": "address",
          "name": "_to",
          "type": "address"
        },
        {
          "internalType": "address",
          "name": "token",
          "type": "address"
        },
        {
          "internalType": "uint256",
          "name": "amount",
          "type": "uint256"
        }
      ],
      "name": "transferToAddress",
      "outputs": [
        {
          "internalType": "bool",
          "name": "",
          "type": "bool"
        }
      ],
      "stateMutability": "nonpayable",
      "type": "function"
    },
    {
      "inputs": [
        {
          "components": [
            {
              "internalType": "address",
              "name": "from",
              "type": "address"
            },
            {
              "internalType": "address",
              "name": "to",
              "type": "address"
            },
            {
              "internalType": "uint256",
              "name": "value",
              "type": "uint256"
            },
            {
              "internalType": "uint256",
              "name": "gas",
              "type": "uint256"
            },
            {
              "internalType": "uint256",
              "name": "nonce",
              "type": "uint256"
            },
            {
              "internalType": "bytes",
              "name": "data",
              "type": "bytes"
            }
          ],
          "internalType": "struct CryptoMomo.ForwardRequest",
          "name": "_req",
          "type": "tuple"
        },
        {
          "internalType": "bytes",
          "name": "_signature",
          "type": "bytes"
        }
      ],
      "name": "verify",
      "outputs": [
        {
          "internalType": "bool",
          "name": "",
          "type": "bool"
        }
      ],
      "stateMutability": "view",
      "type": "function"
    }
  ],
  "bytecode": "0x608060405234801561001057600080fd5b50613339806100206000396000f3fe6080604052600436106100e85760003560e01c80638da5cb5b1161008a578063c4d66de811610059578063c4d66de814610336578063e5f7b48d1461035f578063f2fde38b1461039c578063fb979c55146103c5576100e8565b80638da5cb5b14610254578063a9b6d8031461027f578063b5336eef146102bc578063bf5d3bdb146102f9576100e8565b806346011693116100c657806346011693146101a457806347153f82146101e15780635c975abb14610212578063715018a61461023d576100e8565b806304031852146100ed57806307381ef91461012a5780632d0335ab14610167575b600080fd5b3480156100f957600080fd5b50610114600480360381019061010f9190611a9f565b610402565b6040516101219190611b18565b60405180910390f35b34801561013657600080fd5b50610151600480360381019061014c9190611b5f565b6104f6565b60405161015e9190611c02565b60405180910390f35b34801561017357600080fd5b5061018e60048036038101906101899190611c1d565b6105ec565b60405161019b9190611b18565b60405180910390f35b3480156101b057600080fd5b506101cb60048036038101906101c69190611b5f565b610635565b6040516101d89190611c02565b60405180910390f35b6101fb60048036038101906101f69190611e51565b610770565b604051610209929190611f48565b60405180910390f35b34801561021e57600080fd5b506102276108e4565b6040516102349190611c02565b60405180910390f35b34801561024957600080fd5b506102526108fb565b005b34801561026057600080fd5b5061026961090f565b6040516102769190611f87565b60405180910390f35b34801561028b57600080fd5b506102a660048036038101906102a19190611fa2565b610939565b6040516102b39190611c02565b60405180910390f35b3480156102c857600080fd5b506102e360048036038101906102de9190611fa2565b610a91565b6040516102f09190611c02565b60405180910390f35b34801561030557600080fd5b50610320600480360381019061031b9190611e51565b610c8c565b60405161032d9190611c02565b60405180910390f35b34801561034257600080fd5b5061035d60048036038101906103589190611c1d565b610ce8565b005b34801561036b57600080fd5b5061038660048036038101906103819190612049565b610ee4565b6040516103939190611f87565b60405180910390f35b3480156103a857600080fd5b506103c360048036038101906103be9190611c1d565b610fed565b005b3480156103d157600080fd5b506103ec60048036038101906103e79190612049565b611070565b6040516103f99190611f87565b60405180910390f35b600061040c61112a565b8383600061041a8383611070565b9050610425816111a8565b61045b576040517fa0dbb6a900000000000000000000000000000000000000000000000000000000815260040160405180910390fd5b60006104678888611070565b905060008173ffffffffffffffffffffffffffffffffffffffff1663e3d670d7886040518263ffffffff1660e01b81526004016104a49190611f87565b602060405180830381865afa1580156104c1573d6000803e3d6000fd5b505050506040513d601f19601f820116820180604052508101906104e591906120ab565b905080955050505050509392505050565b600061050061112a565b8585600061050e8383611070565b9050610519816111a8565b61054f576040517fa0dbb6a900000000000000000000000000000000000000000000000000000000815260040160405180910390fd5b600061055b8a8a611070565b90508073ffffffffffffffffffffffffffffffffffffffff1663e1f21c67888a896040518463ffffffff1660e01b815260040161059a939291906120d8565b6020604051808303816000875af11580156105b9573d6000803e3d6000fd5b505050506040513d601f19601f820116820180604052508101906105dd919061213b565b94505050505095945050505050565b600060cc60008373ffffffffffffffffffffffffffffffffffffffff1673ffffffffffffffffffffffffffffffffffffffff168152602001908152602001600020549050919050565b600061063f61112a565b6106476111f3565b858560006106558383611070565b9050610660816111a8565b610696576040517fa0dbb6a900000000000000000000000000000000000000000000000000000000815260040160405180910390fd5b60006106a28a8a611070565b905060008173ffffffffffffffffffffffffffffffffffffffff166301e33667898b8a6040518463ffffffff1660e01b81526004016106e3939291906120d8565b6020604051808303816000875af1158015610702573d6000803e3d6000fd5b505050506040513d601f19601f82011682018060405250810190610726919061213b565b90508061075f576040517f90b8ec1800000000000000000000000000000000000000000000000000000000815260040160405180910390fd5b809550505050505095945050505050565b6000606061077e8484610c8c565b6107bd576040517f08c379a00000000000000000000000000000000000000000000000000000000081526004016107b4906121eb565b60405180910390fd5b600184608001516107ce919061223a565b60cc6000866000015173ffffffffffffffffffffffffffffffffffffffff1673ffffffffffffffffffffffffffffffffffffffff16815260200190815260200160002081905550600080856020015173ffffffffffffffffffffffffffffffffffffffff16866060015187604001518860a0015189600001516040516020016108589291906122f2565b604051602081830303815290604052604051610874919061231a565b600060405180830381858888f193505050503d80600081146108b2576040519150601f19603f3d011682016040523d82523d6000602084013e6108b7565b606091505b5091509150603f86606001516108cd9190612360565b5a116108d557fe5b81819350935050509250929050565b6000603360009054906101000a900460ff16905090565b61090361112a565b61090d600061123d565b565b6000606560009054906101000a900473ffffffffffffffffffffffffffffffffffffffff16905090565b600061094361112a565b868660006109518383611070565b905061095c816111a8565b610992576040517fa0dbb6a900000000000000000000000000000000000000000000000000000000815260040160405180910390fd5b878760006109a08383611070565b90506109ab816111a8565b6109e1576040517fa0dbb6a900000000000000000000000000000000000000000000000000000000815260040160405180910390fd5b60006109ed8e8e611070565b905060006109fb8d8d611070565b90508173ffffffffffffffffffffffffffffffffffffffff1663e1f21c678c838d6040518463ffffffff1660e01b8152600401610a3a939291906120d8565b6020604051808303816000875af1158015610a59573d6000803e3d6000fd5b505050506040513d601f19601f82011682018060405250810190610a7d919061213b565b985050505050505050509695505050505050565b6000610a9b61112a565b610aa36111f3565b86866000610ab18383611070565b9050610abc816111a8565b610af2576040517fa0dbb6a900000000000000000000000000000000000000000000000000000000815260040160405180910390fd5b6000610afe8989611070565b90506000610b0c8c8c611070565b9050610b17826111a8565b610bbe5760cb60009054906101000a900473ffffffffffffffffffffffffffffffffffffffff1673ffffffffffffffffffffffffffffffffffffffff166301287e118b8b6040518363ffffffff1660e01b8152600401610b789291906123be565b6020604051808303816000875af1158015610b97573d6000803e3d6000fd5b505050506040513d601f19601f82011682018060405250810190610bbb91906123f7565b91505b60008173ffffffffffffffffffffffffffffffffffffffff166301e336678a858b6040518463ffffffff1660e01b8152600401610bfd939291906120d8565b6020604051808303816000875af1158015610c1c573d6000803e3d6000fd5b505050506040513d601f19601f82011682018060405250810190610c40919061213b565b905080610c79576040517f90b8ec1800000000000000000000000000000000000000000000000000000000815260040160405180910390fd5b8096505050505050509695505050505050565b600080610c998484611303565b90508073ffffffffffffffffffffffffffffffffffffffff16846000015173ffffffffffffffffffffffffffffffffffffffff1614610cdc576000915050610ce2565b60019150505b92915050565b60008060019054906101000a900460ff16159050808015610d195750600160008054906101000a900460ff1660ff16105b80610d465750610d283061139e565b158015610d455750600160008054906101000a900460ff1660ff16145b5b610d85576040517f08c379a0000000000000000000000000000000000000000000000000000000008152600401610d7c90612496565b60405180910390fd5b60016000806101000a81548160ff021916908360ff1602179055508015610dc2576001600060016101000a81548160ff0219169083151502179055505b610dca6113c1565b610dd261141a565b610e466040518060400160405280601381526020017f43727970746f4d6f6d6f466f72776172646572000000000000000000000000008152506040518060400160405280600581526020017f302e302e31000000000000000000000000000000000000000000000000000000815250611473565b8160cb60006101000a81548173ffffffffffffffffffffffffffffffffffffffff021916908373ffffffffffffffffffffffffffffffffffffffff1602179055508015610ee05760008060016101000a81548160ff0219169083151502179055507f7f26b83ff96e1f2b6a682f133852f6798a09c465da95921460cefb38474024986001604051610ed79190612508565b60405180910390a15b5050565b6000610eee61112a565b610ef66111f3565b6000610f028484611070565b9050610f0d816111a8565b15610f44576040517f8d90473400000000000000000000000000000000000000000000000000000000815260040160405180910390fd5b60cb60009054906101000a900473ffffffffffffffffffffffffffffffffffffffff1673ffffffffffffffffffffffffffffffffffffffff166301287e1185856040518363ffffffff1660e01b8152600401610fa19291906123be565b6020604051808303816000875af1158015610fc0573d6000803e3d6000fd5b505050506040513d601f19601f82011682018060405250810190610fe491906123f7565b91505092915050565b610ff561112a565b600073ffffffffffffffffffffffffffffffffffffffff168173ffffffffffffffffffffffffffffffffffffffff1603611064576040517f08c379a000000000000000000000000000000000000000000000000000000000815260040161105b90612595565b60405180910390fd5b61106d8161123d565b50565b600061107a6111f3565b60ff60f81b60cb60009054906101000a900473ffffffffffffffffffffffffffffffffffffffff1684846040516020016110b59291906125e5565b60405160208183030381529060405280519060200120604051806020016110db906119bb565b6020820181038252601f19601f82011660405250805190602001206040516020016111099493929190612676565b6040516020818303038152906040528051906020012060001c905092915050565b6111326114d0565b73ffffffffffffffffffffffffffffffffffffffff1661115061090f565b73ffffffffffffffffffffffffffffffffffffffff16146111a6576040517f08c379a000000000000000000000000000000000000000000000000000000000815260040161119d90612710565b60405180910390fd5b565b6000807fc5d2460186f7233c927e7db2dcc703c0e500b653ca82273b7bfad8045d85a47060001b90506000833f90506000801b81141580156111ea5750818114155b92505050919050565b6111fb6108e4565b1561123b576040517f08c379a00000000000000000000000000000000000000000000000000000000081526004016112329061277c565b60405180910390fd5b565b6000606560009054906101000a900473ffffffffffffffffffffffffffffffffffffffff16905081606560006101000a81548173ffffffffffffffffffffffffffffffffffffffff021916908373ffffffffffffffffffffffffffffffffffffffff1602179055508173ffffffffffffffffffffffffffffffffffffffff168173ffffffffffffffffffffffffffffffffffffffff167f8be0079c531659141344cd1fd0a4f28419497f9722a3daafe3b4186f6b6457e060405160405180910390a35050565b600080611392836113847fdd8f4b70b0f4393e889bd39128a30628a78b61816a9eb8199759e7a349657e488760000151886020015189604001518a606001518b608001518c60a001518051906020012060405160200161136997969594939291906127ab565b604051602081830303815290604052805190602001206114d8565b6114f290919063ffffffff16565b90508091505092915050565b6000808273ffffffffffffffffffffffffffffffffffffffff163b119050919050565b600060019054906101000a900460ff16611410576040517f08c379a00000000000000000000000000000000000000000000000000000000081526004016114079061288c565b60405180910390fd5b611418611519565b565b600060019054906101000a900460ff16611469576040517f08c379a00000000000000000000000000000000000000000000000000000000081526004016114609061288c565b60405180910390fd5b611471611585565b565b600060019054906101000a900460ff166114c2576040517f08c379a00000000000000000000000000000000000000000000000000000000081526004016114b99061288c565b60405180910390fd5b6114cc82826115e6565b5050565b600033905090565b60006114eb6114e5611661565b836116a1565b9050919050565b600080600061150185856116d4565b9150915061150e81611725565b819250505092915050565b600060019054906101000a900460ff16611568576040517f08c379a000000000000000000000000000000000000000000000000000000000815260040161155f9061288c565b60405180910390fd5b6000603360006101000a81548160ff021916908315150217905550565b600060019054906101000a900460ff166115d4576040517f08c379a00000000000000000000000000000000000000000000000000000000081526004016115cb9061288c565b60405180910390fd5b6115e46115df6114d0565b61123d565b565b600060019054906101000a900460ff16611635576040517f08c379a000000000000000000000000000000000000000000000000000000000815260040161162c9061288c565b60405180910390fd5b600082805190602001209050600082805190602001209050816097819055508060988190555050505050565b600061169c7f8b73c3c69bb8fe3d512ecc4cf759cc79239f7b179b0ffacaa9a75d522b39400f61168f61188b565b611697611895565b61189f565b905090565b600082826040516020016116b69291906128f8565b60405160208183030381529060405280519060200120905092915050565b60008060418351036117155760008060006020860151925060408601519150606086015160001a9050611709878285856118d9565b9450945050505061171e565b60006002915091505b9250929050565b600060048111156117395761173861292f565b5b81600481111561174c5761174b61292f565b5b031561188857600160048111156117665761176561292f565b5b8160048111156117795761177861292f565b5b036117b9576040517f08c379a00000000000000000000000000000000000000000000000000000000081526004016117b0906129aa565b60405180910390fd5b600260048111156117cd576117cc61292f565b5b8160048111156117e0576117df61292f565b5b03611820576040517f08c379a000000000000000000000000000000000000000000000000000000000815260040161181790612a16565b60405180910390fd5b600360048111156118345761183361292f565b5b8160048111156118475761184661292f565b5b03611887576040517f08c379a000000000000000000000000000000000000000000000000000000000815260040161187e90612aa8565b60405180910390fd5b5b50565b6000609754905090565b6000609854905090565b600083838346306040516020016118ba959493929190612ac8565b6040516020818303038152906040528051906020012090509392505050565b6000807f7fffffffffffffffffffffffffffffff5d576e7357a4501ddfe92f46681b20a08360001c11156119145760006003915091506119b2565b6000600187878787604051600081526020016040526040516119399493929190612b2a565b6020604051602081039080840390855afa15801561195b573d6000803e3d6000fd5b505050602060405103519050600073ffffffffffffffffffffffffffffffffffffffff168173ffffffffffffffffffffffffffffffffffffffff16036119a9576000600192509250506119b2565b80600092509250505b94509492505050565b61079480612b7083390190565b6000604051905090565b600080fd5b600080fd5b600080fd5b600080fd5b600080fd5b60008083601f840112611a0157611a006119dc565b5b8235905067ffffffffffffffff811115611a1e57611a1d6119e1565b5b602083019150836001820283011115611a3a57611a396119e6565b5b9250929050565b600073ffffffffffffffffffffffffffffffffffffffff82169050919050565b6000611a6c82611a41565b9050919050565b611a7c81611a61565b8114611a8757600080fd5b50565b600081359050611a9981611a73565b92915050565b600080600060408486031215611ab857611ab76119d2565b5b600084013567ffffffffffffffff811115611ad657611ad56119d7565b5b611ae2868287016119eb565b93509350506020611af586828701611a8a565b9150509250925092565b6000819050919050565b611b1281611aff565b82525050565b6000602082019050611b2d6000830184611b09565b92915050565b611b3c81611aff565b8114611b4757600080fd5b50565b600081359050611b5981611b33565b92915050565b600080600080600060808688031215611b7b57611b7a6119d2565b5b600086013567ffffffffffffffff811115611b9957611b986119d7565b5b611ba5888289016119eb565b95509550506020611bb888828901611a8a565b9350506040611bc988828901611a8a565b9250506060611bda88828901611b4a565b9150509295509295909350565b60008115159050919050565b611bfc81611be7565b82525050565b6000602082019050611c176000830184611bf3565b92915050565b600060208284031215611c3357611c326119d2565b5b6000611c4184828501611a8a565b91505092915050565b600080fd5b6000601f19601f8301169050919050565b7f4e487b7100000000000000000000000000000000000000000000000000000000600052604160045260246000fd5b611c9882611c4f565b810181811067ffffffffffffffff82111715611cb757611cb6611c60565b5b80604052505050565b6000611cca6119c8565b9050611cd68282611c8f565b919050565b600080fd5b600080fd5b600067ffffffffffffffff821115611d0057611cff611c60565b5b611d0982611c4f565b9050602081019050919050565b82818337600083830152505050565b6000611d38611d3384611ce5565b611cc0565b905082815260208101848484011115611d5457611d53611ce0565b5b611d5f848285611d16565b509392505050565b600082601f830112611d7c57611d7b6119dc565b5b8135611d8c848260208601611d25565b91505092915050565b600060c08284031215611dab57611daa611c4a565b5b611db560c0611cc0565b90506000611dc584828501611a8a565b6000830152506020611dd984828501611a8a565b6020830152506040611ded84828501611b4a565b6040830152506060611e0184828501611b4a565b6060830152506080611e1584828501611b4a565b60808301525060a082013567ffffffffffffffff811115611e3957611e38611cdb565b5b611e4584828501611d67565b60a08301525092915050565b60008060408385031215611e6857611e676119d2565b5b600083013567ffffffffffffffff811115611e8657611e856119d7565b5b611e9285828601611d95565b925050602083013567ffffffffffffffff811115611eb357611eb26119d7565b5b611ebf85828601611d67565b9150509250929050565b600081519050919050565b600082825260208201905092915050565b60005b83811015611f03578082015181840152602081019050611ee8565b60008484015250505050565b6000611f1a82611ec9565b611f248185611ed4565b9350611f34818560208601611ee5565b611f3d81611c4f565b840191505092915050565b6000604082019050611f5d6000830185611bf3565b8181036020830152611f6f8184611f0f565b90509392505050565b611f8181611a61565b82525050565b6000602082019050611f9c6000830184611f78565b92915050565b60008060008060008060808789031215611fbf57611fbe6119d2565b5b600087013567ffffffffffffffff811115611fdd57611fdc6119d7565b5b611fe989828a016119eb565b9650965050602087013567ffffffffffffffff81111561200c5761200b6119d7565b5b61201889828a016119eb565b9450945050604061202b89828a01611a8a565b925050606061203c89828a01611b4a565b9150509295509295509295565b600080602083850312156120605761205f6119d2565b5b600083013567ffffffffffffffff81111561207e5761207d6119d7565b5b61208a858286016119eb565b92509250509250929050565b6000815190506120a581611b33565b92915050565b6000602082840312156120c1576120c06119d2565b5b60006120cf84828501612096565b91505092915050565b60006060820190506120ed6000830186611f78565b6120fa6020830185611f78565b6121076040830184611b09565b949350505050565b61211881611be7565b811461212357600080fd5b50565b6000815190506121358161210f565b92915050565b600060208284031215612151576121506119d2565b5b600061215f84828501612126565b91505092915050565b600082825260208201905092915050565b7f506179736c696365466f727761726465723a207369676e617475726520646f6560008201527f73206e6f74206d61746368207265717565737400000000000000000000000000602082015250565b60006121d5603383612168565b91506121e082612179565b604082019050919050565b60006020820190508181036000830152612204816121c8565b9050919050565b7f4e487b7100000000000000000000000000000000000000000000000000000000600052601160045260246000fd5b600061224582611aff565b915061225083611aff565b92508282019050808211156122685761226761220b565b5b92915050565b600081905092915050565b600061228482611ec9565b61228e818561226e565b935061229e818560208601611ee5565b80840191505092915050565b60008160601b9050919050565b60006122c2826122aa565b9050919050565b60006122d4826122b7565b9050919050565b6122ec6122e782611a61565b6122c9565b82525050565b60006122fe8285612279565b915061230a82846122db565b6014820191508190509392505050565b60006123268284612279565b915081905092915050565b7f4e487b7100000000000000000000000000000000000000000000000000000000600052601260045260246000fd5b600061236b82611aff565b915061237683611aff565b92508261238657612385612331565b5b828204905092915050565b600061239d8385612168565b93506123aa838584611d16565b6123b383611c4f565b840190509392505050565b600060208201905081810360008301526123d9818486612391565b90509392505050565b6000815190506123f181611a73565b92915050565b60006020828403121561240d5761240c6119d2565b5b600061241b848285016123e2565b91505092915050565b7f496e697469616c697a61626c653a20636f6e747261637420697320616c72656160008201527f647920696e697469616c697a6564000000000000000000000000000000000000602082015250565b6000612480602e83612168565b915061248b82612424565b604082019050919050565b600060208201905081810360008301526124af81612473565b9050919050565b6000819050919050565b600060ff82169050919050565b6000819050919050565b60006124f26124ed6124e8846124b6565b6124cd565b6124c0565b9050919050565b612502816124d7565b82525050565b600060208201905061251d60008301846124f9565b92915050565b7f4f776e61626c653a206e6577206f776e657220697320746865207a65726f206160008201527f6464726573730000000000000000000000000000000000000000000000000000602082015250565b600061257f602683612168565b915061258a82612523565b604082019050919050565b600060208201905081810360008301526125ae81612572565b9050919050565b600081905092915050565b60006125cc83856125b5565b93506125d9838584611d16565b82840190509392505050565b60006125f28284866125c0565b91508190509392505050565b60007fff0000000000000000000000000000000000000000000000000000000000000082169050919050565b6000819050919050565b612645612640826125fe565b61262a565b82525050565b6000819050919050565b6000819050919050565b61267061266b8261264b565b612655565b82525050565b60006126828287612634565b60018201915061269282866122db565b6014820191506126a2828561265f565b6020820191506126b2828461265f565b60208201915081905095945050505050565b7f4f776e61626c653a2063616c6c6572206973206e6f7420746865206f776e6572600082015250565b60006126fa602083612168565b9150612705826126c4565b602082019050919050565b60006020820190508181036000830152612729816126ed565b9050919050565b7f5061757361626c653a2070617573656400000000000000000000000000000000600082015250565b6000612766601083612168565b915061277182612730565b602082019050919050565b6000602082019050818103600083015261279581612759565b9050919050565b6127a58161264b565b82525050565b600060e0820190506127c0600083018a61279c565b6127cd6020830189611f78565b6127da6040830188611f78565b6127e76060830187611b09565b6127f46080830186611b09565b61280160a0830185611b09565b61280e60c083018461279c565b98975050505050505050565b7f496e697469616c697a61626c653a20636f6e7472616374206973206e6f74206960008201527f6e697469616c697a696e67000000000000000000000000000000000000000000602082015250565b6000612876602b83612168565b91506128818261281a565b604082019050919050565b600060208201905081810360008301526128a581612869565b9050919050565b7f1901000000000000000000000000000000000000000000000000000000000000600082015250565b60006128e26002836125b5565b91506128ed826128ac565b600282019050919050565b6000612903826128d5565b915061290f828561265f565b60208201915061291f828461265f565b6020820191508190509392505050565b7f4e487b7100000000000000000000000000000000000000000000000000000000600052602160045260246000fd5b7f45434453413a20696e76616c6964207369676e61747572650000000000000000600082015250565b6000612994601883612168565b915061299f8261295e565b602082019050919050565b600060208201905081810360008301526129c381612987565b9050919050565b7f45434453413a20696e76616c6964207369676e6174757265206c656e67746800600082015250565b6000612a00601f83612168565b9150612a0b826129ca565b602082019050919050565b60006020820190508181036000830152612a2f816129f3565b9050919050565b7f45434453413a20696e76616c6964207369676e6174757265202773272076616c60008201527f7565000000000000000000000000000000000000000000000000000000000000602082015250565b6000612a92602283612168565b9150612a9d82612a36565b604082019050919050565b60006020820190508181036000830152612ac181612a85565b9050919050565b600060a082019050612add600083018861279c565b612aea602083018761279c565b612af7604083018661279c565b612b046060830185611b09565b612b116080830184611f78565b9695505050505050565b612b24816124c0565b82525050565b6000608082019050612b3f600083018761279c565b612b4c6020830186612b1b565b612b59604083018561279c565b612b66606083018461279c565b9594505050505056fe608060405234801561001057600080fd5b50610774806100206000396000f3fe60806040526004361061002d5760003560e01c8063485cc95514610038578063966dae0e146100615761002e565b5b61003661008c565b005b34801561004457600080fd5b5061005f600480360381019061005a91906104aa565b6101f3565b005b34801561006d57600080fd5b506100766103fe565b60405161008391906104f9565b60405180910390f35b3373ffffffffffffffffffffffffffffffffffffffff16600060029054906101000a900473ffffffffffffffffffffffffffffffffffffffff1673ffffffffffffffffffffffffffffffffffffffff1663faa8aab16040518163ffffffff1660e01b8152600401602060405180830381865afa158015610110573d6000803e3d6000fd5b505050506040513d601f19601f820116820180604052508101906101349190610529565b73ffffffffffffffffffffffffffffffffffffffff161461018a576040517f08c379a0000000000000000000000000000000000000000000000000000000008152600401610181906105b3565b60405180910390fd5b7fffffffffffffffffffffffffffffffffffffffffffffffffffffffffffffffff7f542716ccde0a3fd74601ae4bfa898139e782bb572a8d2efa9b3bd9b79d5a240c54163660008037600080366000845af43d6000803e600081036101ee573d6000fd5b3d6000f35b60008060019054906101000a900460ff161590508080156102245750600160008054906101000a900460ff1660ff16105b80610251575061023330610424565b1580156102505750600160008054906101000a900460ff1660ff16145b5b610290576040517f08c379a000000000000000000000000000000000000000000000000000000000815260040161028790610645565b60405180910390fd5b60016000806101000a81548160ff021916908360ff16021790555080156102cd576001600060016101000a81548160ff0219169083151502179055505b600073ffffffffffffffffffffffffffffffffffffffff168373ffffffffffffffffffffffffffffffffffffffff160361033c576040517f08c379a0000000000000000000000000000000000000000000000000000000008152600401610333906106b1565b60405180910390fd5b81600060026101000a81548173ffffffffffffffffffffffffffffffffffffffff021916908373ffffffffffffffffffffffffffffffffffffffff160217905550827f542716ccde0a3fd74601ae4bfa898139e782bb572a8d2efa9b3bd9b79d5a240c5580156103f95760008060016101000a81548160ff0219169083151502179055507f7f26b83ff96e1f2b6a682f133852f6798a09c465da95921460cefb384740249860016040516103f09190610723565b60405180910390a15b505050565b600060029054906101000a900473ffffffffffffffffffffffffffffffffffffffff1681565b6000808273ffffffffffffffffffffffffffffffffffffffff163b119050919050565b600080fd5b600073ffffffffffffffffffffffffffffffffffffffff82169050919050565b60006104778261044c565b9050919050565b6104878161046c565b811461049257600080fd5b50565b6000813590506104a48161047e565b92915050565b600080604083850312156104c1576104c0610447565b5b60006104cf85828601610495565b92505060206104e085828601610495565b9150509250929050565b6104f38161046c565b82525050565b600060208201905061050e60008301846104ea565b92915050565b6000815190506105238161047e565b92915050565b60006020828403121561053f5761053e610447565b5b600061054d84828501610514565b91505092915050565b600082825260208201905092915050565b7f496e76616c69642063616c6c6572000000000000000000000000000000000000600082015250565b600061059d600e83610556565b91506105a882610567565b602082019050919050565b600060208201905081810360008301526105cc81610590565b9050919050565b7f496e697469616c697a61626c653a20636f6e747261637420697320616c72656160008201527f647920696e697469616c697a6564000000000000000000000000000000000000602082015250565b600061062f602e83610556565b915061063a826105d3565b604082019050919050565b6000602082019050818103600083015261065e81610622565b9050919050565b7f496e76616c6964206d6173746572636f70792061646472657373000000000000600082015250565b600061069b601a83610556565b91506106a682610665565b602082019050919050565b600060208201905081810360008301526106ca8161068e565b9050919050565b6000819050919050565b600060ff82169050919050565b6000819050919050565b600061070d610708610703846106d1565b6106e8565b6106db565b9050919050565b61071d816106f2565b82525050565b60006020820190506107386000830184610714565b9291505056fea264697066735822122062ec58d5eec5995fc873e88d353728ee16059c761a95a85f9840e404adbfd2c764736f6c63430008110033a2646970667358221220a58b5dfee6f729c92a73287cf066e30cc28436e7651bdd5c22d1656e02490a2c64736f6c63430008110033",
  "linkReferences": {},
  "deployedLinkReferences": {}
}