{
  "address": "0x1935489245fb960FB96696ABf4032948Cd9f2923",
  "_format": "hh-sol-artifact-1",
  "contractName": "Wallet",
  "sourceName": "contracts/base/Wallet.sol",
  "abi": [
    {
      "inputs": [],
      "name": "InsufficientBalance",
      "type": "error"
    },
    {
      "inputs": [],
      "name": "InvalidTokenAddress",
      "type": "error"
    },
    {
      "inputs": [],
      "name": "InvalidWalletAddress",
      "type": "error"
    },
    {
      "inputs": [],
      "name": "TransferFailed",
      "type": "error"
    },
    {
      "inputs": [],
      "name": "ZeroAddress",
      "type": "error"
    },
    {
      "stateMutability": "payable",
      "type": "fallback"
    },
    {
      "inputs": [
        {
          "internalType": "address",
          "name": "_token",
          "type": "address"
        },
        {
          "internalType": "address",
          "name": "_recipient",
          "type": "address"
        },
        {
          "internalType": "uint256",
          "name": "amount",
          "type": "uint256"
        }
      ],
      "name": "approve",
      "outputs": [
        {
          "internalType": "bool",
          "name": "",
          "type": "bool"
        }
      ],
      "stateMutability": "nonpayable",
      "type": "function"
    },
    {
      "inputs": [
        {
          "internalType": "address",
          "name": "_token",
          "type": "address"
        }
      ],
      "name": "balance",
      "outputs": [
        {
          "internalType": "uint256",
          "name": "",
          "type": "uint256"
        }
      ],
      "stateMutability": "view",
      "type": "function"
    },
    {
      "inputs": [],
      "name": "version",
      "outputs": [
        {
          "internalType": "string",
          "name": "",
          "type": "string"
        }
      ],
      "stateMutability": "pure",
      "type": "function"
    },
    {
      "inputs": [
        {
          "internalType": "address",
          "name": "_to",
          "type": "address"
        },
        {
          "internalType": "uint256",
          "name": "_amount",
          "type": "uint256"
        }
      ],
      "name": "withdrawNativeToken",
      "outputs": [],
      "stateMutability": "nonpayable",
      "type": "function"
    },
    {
      "inputs": [
        {
          "internalType": "address",
          "name": "_token",
          "type": "address"
        },
        {
          "internalType": "address",
          "name": "_to",
          "type": "address"
        },
        {
          "internalType": "uint256",
          "name": "_amount",
          "type": "uint256"
        }
      ],
      "name": "withdrawToken",
      "outputs": [
        {
          "internalType": "bool",
          "name": "",
          "type": "bool"
        }
      ],
      "stateMutability": "nonpayable",
      "type": "function"
    },
    {
      "stateMutability": "payable",
      "type": "receive"
    }
  ],
  "bytecode": "0x608060405234801561001057600080fd5b50610a7f806100206000396000f3fe60806040526004361061004e5760003560e01c806301e3366714610057578063536c6bfa1461009457806354fd4d50146100bd578063e1f21c67146100e8578063e3d670d71461012557610055565b3661005557005b005b34801561006357600080fd5b5061007e60048036038101906100799190610743565b610162565b60405161008b91906107b1565b60405180910390f35b3480156100a057600080fd5b506100bb60048036038101906100b691906107cc565b610340565b005b3480156100c957600080fd5b506100d2610488565b6040516100df919061089c565b60405180910390f35b3480156100f457600080fd5b5061010f600480360381019061010a9190610743565b6104c5565b60405161011c91906107b1565b60405180910390f35b34801561013157600080fd5b5061014c600480360381019061014791906108be565b6105eb565b60405161015991906108fa565b60405180910390f35b60008073ffffffffffffffffffffffffffffffffffffffff168473ffffffffffffffffffffffffffffffffffffffff16036101c9576040517f1eb00b0600000000000000000000000000000000000000000000000000000000815260040160405180910390fd5b818473ffffffffffffffffffffffffffffffffffffffff166370a08231306040518263ffffffff1660e01b81526004016102039190610924565b602060405180830381865afa158015610220573d6000803e3d6000fd5b505050506040513d601f19601f820116820180604052508101906102449190610954565b101561027c576040517ff4d678b800000000000000000000000000000000000000000000000000000000815260040160405180910390fd5b60008473ffffffffffffffffffffffffffffffffffffffff1663a9059cbb85856040518363ffffffff1660e01b81526004016102b9929190610981565b6020604051808303816000875af11580156102d8573d6000803e3d6000fd5b505050506040513d601f19601f820116820180604052508101906102fc91906109d6565b905080610335576040517f90b8ec1800000000000000000000000000000000000000000000000000000000815260040160405180910390fd5b809150509392505050565b600073ffffffffffffffffffffffffffffffffffffffff168273ffffffffffffffffffffffffffffffffffffffff16036103a6576040517fa5f90a1100000000000000000000000000000000000000000000000000000000815260040160405180910390fd5b804710156103e0576040517ff4d678b800000000000000000000000000000000000000000000000000000000815260040160405180910390fd5b60008273ffffffffffffffffffffffffffffffffffffffff168260405161040690610a34565b60006040518083038185875af1925050503d8060008114610443576040519150601f19603f3d011682016040523d82523d6000602084013e610448565b606091505b5050905080610483576040517f90b8ec1800000000000000000000000000000000000000000000000000000000815260040160405180910390fd5b505050565b60606040518060400160405280600581526020017f302e302e31000000000000000000000000000000000000000000000000000000815250905090565b60008073ffffffffffffffffffffffffffffffffffffffff168473ffffffffffffffffffffffffffffffffffffffff16148061052d5750600073ffffffffffffffffffffffffffffffffffffffff168373ffffffffffffffffffffffffffffffffffffffff16145b15610564576040517fd92e233d00000000000000000000000000000000000000000000000000000000815260040160405180910390fd5b8373ffffffffffffffffffffffffffffffffffffffff1663095ea7b384846040518363ffffffff1660e01b815260040161059f929190610981565b6020604051808303816000875af11580156105be573d6000803e3d6000fd5b505050506040513d601f19601f820116820180604052508101906105e291906109d6565b90509392505050565b60008073ffffffffffffffffffffffffffffffffffffffff168273ffffffffffffffffffffffffffffffffffffffff1603610628574790506106a5565b8173ffffffffffffffffffffffffffffffffffffffff166370a08231306040518263ffffffff1660e01b81526004016106619190610924565b602060405180830381865afa15801561067e573d6000803e3d6000fd5b505050506040513d601f19601f820116820180604052508101906106a29190610954565b90505b919050565b600080fd5b600073ffffffffffffffffffffffffffffffffffffffff82169050919050565b60006106da826106af565b9050919050565b6106ea816106cf565b81146106f557600080fd5b50565b600081359050610707816106e1565b92915050565b6000819050919050565b6107208161070d565b811461072b57600080fd5b50565b60008135905061073d81610717565b92915050565b60008060006060848603121561075c5761075b6106aa565b5b600061076a868287016106f8565b935050602061077b868287016106f8565b925050604061078c8682870161072e565b9150509250925092565b60008115159050919050565b6107ab81610796565b82525050565b60006020820190506107c660008301846107a2565b92915050565b600080604083850312156107e3576107e26106aa565b5b60006107f1858286016106f8565b92505060206108028582860161072e565b9150509250929050565b600081519050919050565b600082825260208201905092915050565b60005b8381101561084657808201518184015260208101905061082b565b60008484015250505050565b6000601f19601f8301169050919050565b600061086e8261080c565b6108788185610817565b9350610888818560208601610828565b61089181610852565b840191505092915050565b600060208201905081810360008301526108b68184610863565b905092915050565b6000602082840312156108d4576108d36106aa565b5b60006108e2848285016106f8565b91505092915050565b6108f48161070d565b82525050565b600060208201905061090f60008301846108eb565b92915050565b61091e816106cf565b82525050565b60006020820190506109396000830184610915565b92915050565b60008151905061094e81610717565b92915050565b60006020828403121561096a576109696106aa565b5b60006109788482850161093f565b91505092915050565b60006040820190506109966000830185610915565b6109a360208301846108eb565b9392505050565b6109b381610796565b81146109be57600080fd5b50565b6000815190506109d0816109aa565b92915050565b6000602082840312156109ec576109eb6106aa565b5b60006109fa848285016109c1565b91505092915050565b600081905092915050565b50565b6000610a1e600083610a03565b9150610a2982610a0e565b600082019050919050565b6000610a3f82610a11565b915081905091905056fea2646970667358221220909eeffa8fa37a87c3058be530e89567999e3de310793bf19e355b36c390066464736f6c63430008110033",
  "linkReferences": {},
  "deployedLinkReferences": {}
}